{
  "contractName": "BodhiToken",
  "abi": [
    {
      "constant": true,
      "inputs": [],
      "name": "name",
      "outputs": [
        {
          "name": "",
          "type": "string"
        }
      ],
      "payable": false,
      "stateMutability": "view",
      "type": "function"
    },
    {
      "constant": false,
      "inputs": [
        {
          "name": "_spender",
          "type": "address"
        },
        {
          "name": "_value",
          "type": "uint256"
        }
      ],
      "name": "approve",
      "outputs": [
        {
          "name": "",
          "type": "bool"
        }
      ],
      "payable": false,
      "stateMutability": "nonpayable",
      "type": "function"
    },
    {
      "constant": true,
      "inputs": [],
      "name": "totalSupply",
      "outputs": [
        {
          "name": "",
          "type": "uint256"
        }
      ],
      "payable": false,
      "stateMutability": "view",
      "type": "function"
    },
    {
      "constant": false,
      "inputs": [
        {
          "name": "_from",
          "type": "address"
        },
        {
          "name": "_to",
          "type": "address"
        },
        {
          "name": "_value",
          "type": "uint256"
        }
      ],
      "name": "transferFrom",
      "outputs": [
        {
          "name": "",
          "type": "bool"
        }
      ],
      "payable": false,
      "stateMutability": "nonpayable",
      "type": "function"
    },
    {
      "constant": true,
      "inputs": [],
      "name": "decimals",
      "outputs": [
        {
          "name": "",
          "type": "uint256"
        }
      ],
      "payable": false,
      "stateMutability": "view",
      "type": "function"
    },
    {
      "constant": true,
      "inputs": [
        {
          "name": "_owner",
          "type": "address"
        }
      ],
      "name": "balanceOf",
      "outputs": [
        {
          "name": "balance",
          "type": "uint256"
        }
      ],
      "payable": false,
      "stateMutability": "view",
      "type": "function"
    },
    {
      "constant": true,
      "inputs": [],
      "name": "owner",
      "outputs": [
        {
          "name": "",
          "type": "address"
        }
      ],
      "payable": false,
      "stateMutability": "view",
      "type": "function"
    },
    {
      "constant": true,
      "inputs": [],
      "name": "symbol",
      "outputs": [
        {
          "name": "",
          "type": "string"
        }
      ],
      "payable": false,
      "stateMutability": "view",
      "type": "function"
    },
    {
      "constant": false,
      "inputs": [
        {
          "name": "_to",
          "type": "address"
        },
        {
          "name": "_value",
          "type": "uint256"
        }
      ],
      "name": "transfer",
      "outputs": [
        {
          "name": "",
          "type": "bool"
        }
      ],
      "payable": false,
      "stateMutability": "nonpayable",
      "type": "function"
    },
    {
      "constant": false,
      "inputs": [
        {
          "name": "_to",
          "type": "address"
        },
        {
          "name": "_value",
          "type": "uint256"
        },
        {
          "name": "_data",
          "type": "bytes"
        }
      ],
      "name": "transfer",
      "outputs": [
        {
          "name": "success",
          "type": "bool"
        }
      ],
      "payable": false,
      "stateMutability": "nonpayable",
      "type": "function"
    },
    {
      "constant": true,
      "inputs": [
        {
          "name": "_owner",
          "type": "address"
        },
        {
          "name": "_spender",
          "type": "address"
        }
      ],
      "name": "allowance",
      "outputs": [
        {
          "name": "remaining",
          "type": "uint256"
        }
      ],
      "payable": false,
      "stateMutability": "view",
      "type": "function"
    },
    {
      "constant": false,
      "inputs": [
        {
          "name": "_newOwner",
          "type": "address"
        }
      ],
      "name": "transferOwnership",
      "outputs": [],
      "payable": false,
      "stateMutability": "nonpayable",
      "type": "function"
    },
    {
      "constant": true,
      "inputs": [],
      "name": "tokenTotalSupply",
      "outputs": [
        {
          "name": "",
          "type": "uint256"
        }
      ],
      "payable": false,
      "stateMutability": "view",
      "type": "function"
    },
    {
      "inputs": [],
      "payable": false,
      "stateMutability": "nonpayable",
      "type": "constructor"
    },
    {
      "anonymous": false,
      "inputs": [
        {
          "indexed": false,
          "name": "supply",
          "type": "uint256"
        },
        {
          "indexed": true,
          "name": "to",
          "type": "address"
        },
        {
          "indexed": false,
          "name": "amount",
          "type": "uint256"
        }
      ],
      "name": "Mint",
      "type": "event"
    },
    {
      "anonymous": false,
      "inputs": [
        {
          "indexed": true,
          "name": "_previousOwner",
          "type": "address"
        },
        {
          "indexed": true,
          "name": "_newOwner",
          "type": "address"
        }
      ],
      "name": "OwnershipTransferred",
      "type": "event"
    },
    {
      "anonymous": false,
      "inputs": [
        {
          "indexed": true,
          "name": "from",
          "type": "address"
        },
        {
          "indexed": true,
          "name": "to",
          "type": "address"
        },
        {
          "indexed": false,
          "name": "value",
          "type": "uint256"
        },
        {
          "indexed": false,
          "name": "data",
          "type": "bytes"
        }
      ],
      "name": "Transfer",
      "type": "event"
    },
    {
      "anonymous": false,
      "inputs": [
        {
          "indexed": true,
          "name": "from",
          "type": "address"
        },
        {
          "indexed": true,
          "name": "to",
          "type": "address"
        },
        {
          "indexed": false,
          "name": "value",
          "type": "uint256"
        }
      ],
      "name": "Transfer",
      "type": "event"
    },
    {
      "anonymous": false,
      "inputs": [
        {
          "indexed": true,
          "name": "owner",
          "type": "address"
        },
        {
          "indexed": true,
          "name": "spender",
          "type": "address"
        },
        {
          "indexed": false,
          "name": "value",
          "type": "uint256"
        }
      ],
      "name": "Approval",
      "type": "event"
    },
    {
      "constant": false,
      "inputs": [
        {
          "name": "_to",
          "type": "address"
        },
        {
          "name": "_amount",
          "type": "uint256"
        }
      ],
      "name": "mintByOwner",
      "outputs": [
        {
          "name": "",
          "type": "bool"
        }
      ],
      "payable": false,
      "stateMutability": "nonpayable",
      "type": "function"
    }
  ],
  "bytecode": "0x608060405234801561001057600080fd5b503380600073ffffffffffffffffffffffffffffffffffffffff168173ffffffffffffffffffffffffffffffffffffffff161415151561004f57600080fd5b81600360006101000a81548173ffffffffffffffffffffffffffffffffffffffff021916908373ffffffffffffffffffffffffffffffffffffffff1602179055505050611341806100a16000396000f3006080604052600436106100d0576000357c0100000000000000000000000000000000000000000000000000000000900463ffffffff16806306fdde03146100d5578063095ea7b31461016557806318160ddd146101ca57806323b872dd146101f5578063313ce5671461027a5780633542aee2146102a557806370a082311461030a5780638da5cb5b1461036157806395d89b41146103b8578063a9059cbb14610448578063be45fd62146104ad578063dd62ed3e14610558578063f2fde38b146105cf578063f7abab9e14610612575b600080fd5b3480156100e157600080fd5b506100ea61063d565b6040518080602001828103825283818151815260200191508051906020019080838360005b8381101561012a57808201518184015260208101905061010f565b50505050905090810190601f1680156101575780820380516001836020036101000a031916815260200191505b509250505060405180910390f35b34801561017157600080fd5b506101b0600480360381019080803573ffffffffffffffffffffffffffffffffffffffff16906020019092919080359060200190929190505050610676565b604051808215151515815260200191505060405180910390f35b3480156101d657600080fd5b506101df6107fd565b6040518082815260200191505060405180910390f35b34801561020157600080fd5b50610260600480360381019080803573ffffffffffffffffffffffffffffffffffffffff169060200190929190803573ffffffffffffffffffffffffffffffffffffffff16906020019092919080359060200190929190505050610803565b604051808215151515815260200191505060405180910390f35b34801561028657600080fd5b5061028f610af1565b6040518082815260200191505060405180910390f35b3480156102b157600080fd5b506102f0600480360381019080803573ffffffffffffffffffffffffffffffffffffffff16906020019092919080359060200190929190505050610af6565b604051808215151515815260200191505060405180910390f35b34801561031657600080fd5b5061034b600480360381019080803573ffffffffffffffffffffffffffffffffffffffff169060200190929190505050610b66565b6040518082815260200191505060405180910390f35b34801561036d57600080fd5b50610376610baf565b604051808273ffffffffffffffffffffffffffffffffffffffff1673ffffffffffffffffffffffffffffffffffffffff16815260200191505060405180910390f35b3480156103c457600080fd5b506103cd610bd5565b6040518080602001828103825283818151815260200191508051906020019080838360005b8381101561040d5780820151818401526020810190506103f2565b50505050905090810190601f16801561043a5780820380516001836020036101000a031916815260200191505b509250505060405180910390f35b34801561045457600080fd5b50610493600480360381019080803573ffffffffffffffffffffffffffffffffffffffff16906020019092919080359060200190929190505050610c0e565b604051808215151515815260200191505060405180910390f35b3480156104b957600080fd5b5061053e600480360381019080803573ffffffffffffffffffffffffffffffffffffffff16906020019092919080359060200190929190803590602001908201803590602001908080601f0160208091040260200160405190810160405280939291908181526020018383808284378201915050505050509192919290505050610c25565b604051808215151515815260200191505060405180910390f35b34801561056457600080fd5b506105b9600480360381019080803573ffffffffffffffffffffffffffffffffffffffff169060200190929190803573ffffffffffffffffffffffffffffffffffffffff169060200190929190505050610fa4565b6040518082815260200191505060405180910390f35b3480156105db57600080fd5b50610610600480360381019080803573ffffffffffffffffffffffffffffffffffffffff16906020019092919050505061102b565b005b34801561061e57600080fd5b50610627611185565b6040518082815260200191505060405180910390f35b6040805190810160405280600b81526020017f426f64686920546f6b656e00000000000000000000000000000000000000000081525081565b60008082148061070257506000600260003373ffffffffffffffffffffffffffffffffffffffff1673ffffffffffffffffffffffffffffffffffffffff16815260200190815260200160002060008573ffffffffffffffffffffffffffffffffffffffff1673ffffffffffffffffffffffffffffffffffffffff16815260200190815260200160002054145b151561070d57600080fd5b81600260003373ffffffffffffffffffffffffffffffffffffffff1673ffffffffffffffffffffffffffffffffffffffff16815260200190815260200160002060008573ffffffffffffffffffffffffffffffffffffffff1673ffffffffffffffffffffffffffffffffffffffff168152602001908152602001600020819055508273ffffffffffffffffffffffffffffffffffffffff163373ffffffffffffffffffffffffffffffffffffffff167f8c5be1e5ebec7d5bd14f71427d1e84f3dd0314c0f7b2291e5b200ac8c7c3b925846040518082815260200191505060405180910390a36001905092915050565b60005481565b60008083600073ffffffffffffffffffffffffffffffffffffffff168173ffffffffffffffffffffffffffffffffffffffff161415151561084357600080fd5b600260008773ffffffffffffffffffffffffffffffffffffffff1673ffffffffffffffffffffffffffffffffffffffff16815260200190815260200160002060003373ffffffffffffffffffffffffffffffffffffffff1673ffffffffffffffffffffffffffffffffffffffff16815260200190815260200160002054915061091484600160008973ffffffffffffffffffffffffffffffffffffffff1673ffffffffffffffffffffffffffffffffffffffff1681526020019081526020016000205461119390919063ffffffff16565b600160008873ffffffffffffffffffffffffffffffffffffffff1673ffffffffffffffffffffffffffffffffffffffff168152602001908152602001600020819055506109a984600160008873ffffffffffffffffffffffffffffffffffffffff1673ffffffffffffffffffffffffffffffffffffffff168152602001908152602001600020546111b190919063ffffffff16565b600160008773ffffffffffffffffffffffffffffffffffffffff1673ffffffffffffffffffffffffffffffffffffffff168152602001908152602001600020819055506109ff848361119390919063ffffffff16565b600260008873ffffffffffffffffffffffffffffffffffffffff1673ffffffffffffffffffffffffffffffffffffffff16815260200190815260200160002060003373ffffffffffffffffffffffffffffffffffffffff1673ffffffffffffffffffffffffffffffffffffffff168152602001908152602001600020819055508473ffffffffffffffffffffffffffffffffffffffff168673ffffffffffffffffffffffffffffffffffffffff167fddf252ad1be2c89b69c2b068fc378daa952ba7f163c4a11628f55a4df523b3ef866040518082815260200191505060405180910390a36001925050509392505050565b600881565b6000600360009054906101000a900473ffffffffffffffffffffffffffffffffffffffff1673ffffffffffffffffffffffffffffffffffffffff163373ffffffffffffffffffffffffffffffffffffffff16141515610b5457600080fd5b610b5e83836111db565b905092915050565b6000600160008373ffffffffffffffffffffffffffffffffffffffff1673ffffffffffffffffffffffffffffffffffffffff168152602001908152602001600020549050919050565b600360009054906101000a900473ffffffffffffffffffffffffffffffffffffffff1681565b6040805190810160405280600381526020017f424f45000000000000000000000000000000000000000000000000000000000081525081565b60006060610c1d848483610c25565b505092915050565b60008084600073ffffffffffffffffffffffffffffffffffffffff168173ffffffffffffffffffffffffffffffffffffffff1614151515610c6557600080fd5b853b9150610cbb85600160003373ffffffffffffffffffffffffffffffffffffffff1673ffffffffffffffffffffffffffffffffffffffff1681526020019081526020016000205461119390919063ffffffff16565b600160003373ffffffffffffffffffffffffffffffffffffffff1673ffffffffffffffffffffffffffffffffffffffff16815260200190815260200160002081905550610d5085600160008973ffffffffffffffffffffffffffffffffffffffff1673ffffffffffffffffffffffffffffffffffffffff168152602001908152602001600020546111b190919063ffffffff16565b600160008873ffffffffffffffffffffffffffffffffffffffff1673ffffffffffffffffffffffffffffffffffffffff168152602001908152602001600020819055506000821115610ec5578573ffffffffffffffffffffffffffffffffffffffff1663c0ee0b8a3387876040518463ffffffff167c0100000000000000000000000000000000000000000000000000000000028152600401808473ffffffffffffffffffffffffffffffffffffffff1673ffffffffffffffffffffffffffffffffffffffff16815260200183815260200180602001828103825283818151815260200191508051906020019080838360005b83811015610e5e578082015181840152602081019050610e43565b50505050905090810190601f168015610e8b5780820380516001836020036101000a031916815260200191505b50945050505050600060405180830381600087803b158015610eac57600080fd5b505af1158015610ec0573d6000803e3d6000fd5b505050505b8573ffffffffffffffffffffffffffffffffffffffff163373ffffffffffffffffffffffffffffffffffffffff167fe19260aff97b920c7df27010903aeb9c8d2be5d310a2c67824cf3f15396e4c1687876040518083815260200180602001828103825283818151815260200191508051906020019080838360005b83811015610f5c578082015181840152602081019050610f41565b50505050905090810190601f168015610f895780820380516001836020036101000a031916815260200191505b50935050505060405180910390a36001925050509392505050565b6000600260008473ffffffffffffffffffffffffffffffffffffffff1673ffffffffffffffffffffffffffffffffffffffff16815260200190815260200160002060008373ffffffffffffffffffffffffffffffffffffffff1673ffffffffffffffffffffffffffffffffffffffff16815260200190815260200160002054905092915050565b600360009054906101000a900473ffffffffffffffffffffffffffffffffffffffff1673ffffffffffffffffffffffffffffffffffffffff163373ffffffffffffffffffffffffffffffffffffffff1614151561108757600080fd5b80600073ffffffffffffffffffffffffffffffffffffffff168173ffffffffffffffffffffffffffffffffffffffff16141515156110c457600080fd5b8173ffffffffffffffffffffffffffffffffffffffff16600360009054906101000a900473ffffffffffffffffffffffffffffffffffffffff1673ffffffffffffffffffffffffffffffffffffffff167f8be0079c531659141344cd1fd0a4f28419497f9722a3daafe3b4186f6b6457e060405160405180910390a381600360006101000a81548173ffffffffffffffffffffffffffffffffffffffff021916908373ffffffffffffffffffffffffffffffffffffffff1602179055505050565b6008600a0a6305f5e1000281565b6000808284101515156111a257fe5b82840390508091505092915050565b60008082840190508381101580156111c95750828110155b15156111d157fe5b8091505092915050565b6000806111f3836000546111b190919063ffffffff16565b90506008600a0a6305f5e10002811115151561120e57600080fd5b82600080828254019250508190555061126f83600160008773ffffffffffffffffffffffffffffffffffffffff1673ffffffffffffffffffffffffffffffffffffffff168152602001908152602001600020546111b190919063ffffffff16565b600160008673ffffffffffffffffffffffffffffffffffffffff1673ffffffffffffffffffffffffffffffffffffffff168152602001908152602001600020819055508373ffffffffffffffffffffffffffffffffffffffff167f4e3883c75cc9c752bb1db2e406a822e4a75067ae77ad9a0a4d179f2709b9e1f660005485604051808381526020018281526020019250505060405180910390a26001915050929150505600a165627a7a72305820ffe80f1d4469d7f36ea7a70e0eacecb8da1b43a49f8352eb2c1b4d2a0b7048720029",
  "source": "pragma solidity ^0.4.23;\n\nimport './StandardToken.sol';\nimport '../lib/Ownable.sol';\n\ncontract BodhiToken is StandardToken, Ownable {\n    // Token configurations\n    string public constant name = \"Bodhi Token\";\n    string public constant symbol = \"BOE\";\n    uint256 public constant decimals = 8;\n\n    uint256 public constant tokenTotalSupply = 100 * (10**6) * (10**decimals); // 100 million BOE ever created\n\n    // Events\n    event Mint(uint256 supply, address indexed to, uint256 amount);\n\n    /// @notice Creates new BodhiToken contract\n    constructor() Ownable(msg.sender) public {\n    }\n\n    /// @notice Allows the owner to mint new tokens\n    /// @param _to Address to mint the tokens to\n    /// @param _amount Amount of tokens that will be minted\n    /// @return Boolean to signify successful minting\n    function mintByOwner(address _to, uint256 _amount) public onlyOwner returns (bool) {\n        return mint(_to, _amount);\n    }\n\n    /// @dev Mint new tokens\n    /// @param _to Address to mint the tokens to\n    /// @param _amount Amount of tokens that will be minted\n    /// @return Boolean to signify successful minting\n    function mint(address _to, uint256 _amount) internal returns (bool) {\n        uint256 checkedSupply = totalSupply.add(_amount);\n        require(checkedSupply <= tokenTotalSupply);\n\n        totalSupply += _amount;\n        balances[_to] = balances[_to].add(_amount);\n\n        emit Mint(totalSupply, _to, _amount);\n\n        return true;\n    }\n}\n",
  "sourcePath": "/Users/deric/coding/bodhi-ethereum/contracts/token/BodhiToken.sol",
  "compiler": {
    "name": "solc",
    "version": "0.4.23+commit.124ca40d.Emscripten.clang"
  },
  "schemaVersion": "2.0.0",
  "updatedAt": "2018-05-08T00:44:21.826Z"
}