{
  "contractName": "ERC223ReceiverMock",
  "abi": [
    {
      "constant": true,
      "inputs": [],
      "name": "tokenFallbackExec",
      "outputs": [
        {
          "name": "",
          "type": "bool"
        }
      ],
      "payable": false,
      "stateMutability": "view",
      "type": "function"
    },
    {
      "constant": false,
      "inputs": [
        {
          "name": "_from",
          "type": "address"
        },
        {
          "name": "_value",
          "type": "uint256"
        },
        {
          "name": "_data",
          "type": "bytes"
        }
      ],
      "name": "tokenFallback",
      "outputs": [],
      "payable": false,
      "stateMutability": "nonpayable",
      "type": "function"
    }
  ],
  "bytecode": "0x608060405234801561001057600080fd5b50610143806100206000396000f30060806040526004361061004c576000357c0100000000000000000000000000000000000000000000000000000000900463ffffffff1680638124ebe814610051578063c0ee0b8a14610080575b600080fd5b34801561005d57600080fd5b506100666100e5565b604051808215151515815260200191505060405180910390f35b34801561008c57600080fd5b506100e3600480360381019080803573ffffffffffffffffffffffffffffffffffffffff169060200190929190803590602001909291908035906020019082018035906020019190919293919293905050506100f7565b005b6000809054906101000a900460ff1681565b60016000806101000a81548160ff021916908315150217905550505050505600a165627a7a723058201420e4f304b52e2f06494ce9e351f9dee054334c491534f9115266ef00d38fb10029",
  "source": "pragma solidity ^0.4.23;\n\nimport '../token/ERC223ReceivingContract.sol';\n\ncontract ERC223ReceiverMock is ERC223ReceivingContract {\n    bool public tokenFallbackExec;\n\n    function tokenFallback(address _from, uint _value, bytes _data) external {\n        tokenFallbackExec = true;\n    }\n}\n",
  "sourcePath": "/Users/deric/coding/bodhi-ethereum/contracts/mock/ERC223ReceiverMock.sol",
  "compiler": {
    "name": "solc",
    "version": "0.4.23+commit.124ca40d.Emscripten.clang"
  },
  "schemaVersion": "2.0.0",
  "updatedAt": "2018-05-08T00:30:36.427Z"
}