{
  "contractName": "NonReceiverMock",
  "abi": [
    {
      "constant": true,
      "inputs": [],
      "name": "tokenFallbackExec",
      "outputs": [
        {
          "name": "",
          "type": "bool"
        }
      ],
      "payable": false,
      "stateMutability": "view",
      "type": "function"
    }
  ],
  "bytecode": "0x6080604052348015600f57600080fd5b5060ae8061001e6000396000f300608060405260043610603f576000357c0100000000000000000000000000000000000000000000000000000000900463ffffffff1680638124ebe8146044575b600080fd5b348015604f57600080fd5b5060566070565b604051808215151515815260200191505060405180910390f35b6000809054906101000a900460ff16815600a165627a7a723058200e1ce0cec0dfb6ee4aa438e612a258c14615c38877466c84ea794a639ef07c270029",
  "source": "pragma solidity ^0.4.23;\n\ncontract NonReceiverMock {\n    bool public tokenFallbackExec;\n}\n",
  "sourcePath": "/Users/deric/coding/bodhi-ethereum/contracts/mock/NonReceiverMock.sol",
  "compiler": {
    "name": "solc",
    "version": "0.4.23+commit.124ca40d.Emscripten.clang"
  },
  "schemaVersion": "2.0.0",
  "updatedAt": "2018-05-08T00:30:36.427Z"
}